{
  "contractName": "Election",
  "abi": [
    {
      "inputs": [],
      "stateMutability": "nonpayable",
      "type": "constructor"
    },
    {
      "anonymous": false,
      "inputs": [],
      "name": "ElectionReset",
      "type": "event"
    },
    {
      "anonymous": false,
      "inputs": [
        {
          "indexed": true,
          "internalType": "uint256",
          "name": "_candidateId",
          "type": "uint256"
        }
      ],
      "name": "VotedEvent",
      "type": "event"
    },
    {
      "inputs": [
        {
          "internalType": "uint256",
          "name": "",
          "type": "uint256"
        }
      ],
      "name": "candidates",
      "outputs": [
        {
          "internalType": "uint256",
          "name": "id",
          "type": "uint256"
        },
        {
          "internalType": "string",
          "name": "name",
          "type": "string"
        },
        {
          "internalType": "uint256",
          "name": "voteCount",
          "type": "uint256"
        }
      ],
      "stateMutability": "view",
      "type": "function",
      "constant": true
    },
    {
      "inputs": [],
      "name": "candidatesCount",
      "outputs": [
        {
          "internalType": "uint256",
          "name": "",
          "type": "uint256"
        }
      ],
      "stateMutability": "view",
      "type": "function",
      "constant": true
    },
    {
      "inputs": [],
      "name": "goingon",
      "outputs": [
        {
          "internalType": "bool",
          "name": "",
          "type": "bool"
        }
      ],
      "stateMutability": "view",
      "type": "function",
      "constant": true
    },
    {
      "inputs": [],
      "name": "owner",
      "outputs": [
        {
          "internalType": "address",
          "name": "",
          "type": "address"
        }
      ],
      "stateMutability": "view",
      "type": "function",
      "constant": true
    },
    {
      "inputs": [
        {
          "internalType": "address",
          "name": "",
          "type": "address"
        }
      ],
      "name": "voters",
      "outputs": [
        {
          "internalType": "bool",
          "name": "",
          "type": "bool"
        }
      ],
      "stateMutability": "view",
      "type": "function",
      "constant": true
    },
    {
      "inputs": [],
      "name": "end",
      "outputs": [],
      "stateMutability": "nonpayable",
      "type": "function"
    },
    {
      "inputs": [
        {
          "internalType": "uint256",
          "name": "_candidateId",
          "type": "uint256"
        }
      ],
      "name": "vote",
      "outputs": [],
      "stateMutability": "nonpayable",
      "type": "function"
    },
    {
      "inputs": [],
      "name": "resetElection",
      "outputs": [],
      "stateMutability": "nonpayable",
      "type": "function"
    }
  ],
  "bytecode": "0x60806040526000805460ff60a01b1916600160a01b17905534801561002357600080fd5b50600080546001600160a01b0319163317905560408051808201909152600b81526a43616e646964617465203160a81b6020820152610061906101ea565b60408051808201909152600b81526a21b0b73234b230ba32901960a91b602082015261008c906101ea565b60408051808201909152600b81526a43616e646964617465203360a81b60208201526100b7906101ea565b60408051808201909152600b81526a10d85b991a59185d19480d60aa1b60208201526100e2906101ea565b60408051808201909152600b81526a43616e646964617465203560a81b602082015261010d906101ea565b60408051808201909152600b81526a21b0b73234b230ba32901b60a91b6020820152610138906101ea565b60408051808201909152600b81526a43616e646964617465203760a81b6020820152610163906101ea565b60408051808201909152600b81526a086c2dcc8d2c8c2e8ca40760ab1b602082015261018e906101ea565b60408051808201909152600b81526a43616e646964617465203960a81b60208201526101b9906101ea565b60408051808201909152600c81526b043616e6469646174652031360a41b60208201526101e5906101ea565b610350565b600380549060006101fa836102ef565b90915550506040805160608101825260035480825260208083018581526000848601819052928352600282529390912082518155925180519293926102459260018501920190610256565b506040820151816002015590505050565b82805461026290610316565b90600052602060002090601f01602090048101928261028457600085556102ca565b82601f1061029d57805160ff19168380011785556102ca565b828001600101855582156102ca579182015b828111156102ca5782518255916020019190600101906102af565b506102d69291506102da565b5090565b5b808211156102d657600081556001016102db565b60006001820161030f57634e487b7160e01b600052601160045260246000fd5b5060010190565b600181811c9082168061032a57607f821691505b60208210810361034a57634e487b7160e01b600052602260045260246000fd5b50919050565b6106018061035f6000396000f3fe608060405234801561001057600080fd5b50600436106100885760003560e01c80638da5cb5b1161005b5780638da5cb5b14610104578063a3ec138d1461012f578063e8f3052314610152578063efbe1c1c1461015a57600080fd5b80630121b93f1461008d5780630a3a906c146100a25780632d35a8a2146100cb5780633477ee2e146100e2575b600080fd5b6100a061009b366004610477565b610162565b005b6000546100b690600160a01b900460ff1681565b60405190151581526020015b60405180910390f35b6100d460035481565b6040519081526020016100c2565b6100f56100f0366004610477565b6102bd565b6040516100c293929190610490565b600054610117906001600160a01b031681565b6040516001600160a01b0390911681526020016100c2565b6100b661013d3660046104f5565b60016020526000908152604090205460ff1681565b6100a0610368565b6100a061043e565b3360009081526001602052604090205460ff16156101b75760405162461bcd60e51b815260206004820152600d60248201526c105b1c9958591e481d9bdd1959609a1b60448201526064015b60405180910390fd5b6000811180156101c957506003548111155b6102095760405162461bcd60e51b8152602060048201526011602482015270496e76616c69642063616e64696461746560781b60448201526064016101ae565b600054600160a01b900460ff166102535760405162461bcd60e51b815260206004820152600e60248201526d115b1958dd1a5bdb88195b99195960921b60448201526064016101ae565b336000908152600160208181526040808420805460ff19169093179092558383526002908190529082200180549161028a83610525565b909155505060405181907fe447c5464cb203c1da94b4db8588d3cbf313ce4a489122f6b88e87f465b2810e90600090a250565b600260205260009081526040902080546001820180549192916102df9061054c565b80601f016020809104026020016040519081016040528092919081815260200182805461030b9061054c565b80156103585780601f1061032d57610100808354040283529160200191610358565b820191906000526020600020905b81548152906001019060200180831161033b57829003601f168201915b5050505050908060020154905083565b6000546001600160a01b031633146103925760405162461bcd60e51b81526004016101ae90610586565b60015b60035481116103c257600081815260026020819052604082200155806103ba81610525565b915050610395565b5060015b6003548111610401576001600160a01b0381166000908152600160205260409020805460ff19169055806103f981610525565b9150506103c6565b506000805460ff60a01b1916600160a01b1781556040517f8d1085cd9eceaab0b77fd20c66dea55df08e5ef2d52859c2cb4a1e16ba9476c09190a1565b6000546001600160a01b031633146104685760405162461bcd60e51b81526004016101ae90610586565b6000805460ff60a01b19169055565b60006020828403121561048957600080fd5b5035919050565b83815260006020606081840152845180606085015260005b818110156104c4578681018301518582016080015282016104a8565b818111156104d6576000608083870101525b5060408401949094525050601f91909101601f19160160800192915050565b60006020828403121561050757600080fd5b81356001600160a01b038116811461051e57600080fd5b9392505050565b60006001820161054557634e487b7160e01b600052601160045260246000fd5b5060010190565b600181811c9082168061056057607f821691505b60208210810361058057634e487b7160e01b600052602260045260246000fd5b50919050565b60208082526025908201527f4f6e6c7920746865206f776e65722063616e2063616c6c20746869732066756e60408201526431ba34b7b760d91b60608201526080019056fea2646970667358221220cf8abc89716e86830dc93fdb48889b5fc1d64328215ec894ed7b12818225257064736f6c634300080d0033",
  "immutableReferences": {},
  "source": "// SPDX-License-Identifier: MIT\r\npragma solidity ^0.8.0;\r\n\r\ncontract Election {\r\n    struct Candidate {\r\n        uint id;\r\n        string name;\r\n        uint voteCount;\r\n    }\r\n\r\n    address public owner;\r\n    bool public goingon = true;\r\n    mapping(address => bool) public voters;\r\n    mapping(uint => Candidate) public candidates;\r\n    uint public candidatesCount;\r\n\r\n    event VotedEvent(uint indexed _candidateId);\r\n    event ElectionReset();\r\n\r\n    constructor() {\r\n        owner = msg.sender; // Set the contract deployer as the owner\r\n        addCandidate(\"Candidate 1\");\r\n        addCandidate(\"Candidate 2\");\r\n        addCandidate(\"Candidate 3\");\r\n        addCandidate(\"Candidate 4\");\r\n        addCandidate(\"Candidate 5\");\r\n        addCandidate(\"Candidate 6\");\r\n        addCandidate(\"Candidate 7\");\r\n        addCandidate(\"Candidate 8\");\r\n        addCandidate(\"Candidate 9\");\r\n        addCandidate(\"Candidate 10\");\r\n    }\r\n\r\n    modifier onlyOwner() {\r\n        require(msg.sender == owner, \"Only the owner can call this function\");\r\n        _;\r\n    }\r\n\r\n    function addCandidate(string memory _name) private {\r\n        candidatesCount++;\r\n        candidates[candidatesCount] = Candidate(candidatesCount, _name, 0);\r\n    }\r\n\r\n    function end() public onlyOwner {\r\n        goingon = false;\r\n    }\r\n\r\n    function vote(uint _candidateId) public {\r\n        require(!voters[msg.sender], \"Already voted\");\r\n        require(_candidateId > 0 && _candidateId <= candidatesCount, \"Invalid candidate\");\r\n        require(goingon, \"Election ended\");\r\n\r\n        voters[msg.sender] = true;\r\n        candidates[_candidateId].voteCount++;\r\n\r\n        emit VotedEvent(_candidateId);\r\n    }\r\n\r\n    function resetElection() public onlyOwner {\r\n        // Reset the voters mapping\r\n        for (uint i = 1; i <= candidatesCount; i++) {\r\n            candidates[i].voteCount = 0;\r\n        }\r\n\r\n        for (uint i = 1; i <= candidatesCount; i++) {\r\n            delete voters[address(uint160(i))];\r\n        }\r\n\r\n        goingon = true;\r\n        emit ElectionReset();\r\n    }\r\n}\r\n",
  "sourcePath": "C:\\Users\\prade\\Downloads\\Final Year Project\\Decentralized_voting_system\\version3\\contracts\\Election.sol",
  "compiler": {
    "name": "solc",
    "version": "0.8.13+commit.abaa5c0e.Emscripten.clang"
  },
  "schemaVersion": "3.4.16",
  "updatedAt": "2025-03-25T07:55:38.598Z",
  "networkType": "ethereum",
  "devdoc": {
    "kind": "dev",
    "methods": {},
    "version": 1
  },
  "userdoc": {
    "kind": "user",
    "methods": {},
    "version": 1
  }
}